:020000002EC010
:10000200FECFFDCFFCCFFBCFFACFF9CFF8CFF7CFA2
:10001200F6CFF5CFF4CFF3CFF2CFF1CFF0CFEFCFD2
:10002200EECFEDCF1027E80364000A0001000010B4
:1000320000011000010000000000000000003F0667
:100042005B4F666D7D077F6F01002D4E414E00496B
:100052004E460000010060014A000000F894EE27BD
:10006200ECBBF1E0FBBFEBBFE5BF8DE0A2E0BB273D
:10007200ED938A95E9F780E094E0A0E6ED9301978D
:10008200E9F7E6E5F0E085919591009761F0A59199
:10009200B59105901590BF01F00105900D92019761
:1000A200E1F7FB01F0CFEFE5EDBFE4E0EEBFC0E624
:1000B200D1E000C0629782E1A0E0B0E0E8E3F0E0C6
:1000C20078D100E010E020E030E041E050E0EED0F6
:1000D20047D1EF3FAFEFFA0721F4E8D0E0E0F0E0DC
:1000E2004FD1E8E3E7BBEFEFE8BBEFE0E4BBE0E7CB
:1000F200E5BBEFE7E1BBE0E8E2BB00240016010646
:1001020011F4B09B01C001C0D4D0D6D011F4B29B7F
:1001120001C001C0D6D0D0D011F4B19B01C002C041
:1001220002E010E0D1D011F4B29B01C003C0C1D0F3
:100132002F5F3F4FC9D011F4B09B01C001C0B9D0AD
:1001420000240016010611F4B29B01C001C0B9D00F
:10015200C0D011F4B09B01C001C0ABD0ADD011F43E
:10016200B29B01C001C0ADD0B4D011F4B19B01C0AB
:1001720002C005E010E0B2D011F4B09B01C003C090
:1001820098D021503040AAD011F4B29B01C001C0D6
:1001920098D0B69903C0F90189D0F2D0B79904C0BA
:1001A20085D0E4E6F0E0ECD09C9902C020E030E09B
:1001B2009D9904C07BD0E0EAF0E0E2D077D0D0D0C5
:1001C2002E173F0718F4C39AC5980DC08CD021F49E
:1001D200C498C59AC39A08C086D018F4C59AC39821
:1001E20002C0C39AC59AC49A2031E7E23E0714F0CE
:1001F20020E030E0D901E8EEF3E091D0EE83FF8316
:10020200D901E8EEF3E090D0DF01E4E6F0E087D038
:10021200EC83FD83D901E4E6F0E086D0DF01EAE079
:10022200F0E07DD0EA83FB83D901EAE0F0E07CD004
:10023200E883F983FA01E130A0E0FA0739F4A89AD9
:10024200A99AAA9AAB98E881F98120C0E230A0E08D
:10025200FA0739F4A89AA99AAA98AB9AEA81FB817B
:1002620015C0E330A0E0FA0739F4A89AA998AA9A2F
:10027200AB9AEC81FD810AC0E430A0E0FA0761F498
:10028200A898A99AAA9AAB9AEE81FF81DE011896E4
:10029200AE0FBF1FEC91E2BB4F5F5F4F4530E0E016
:1002A2005E0714F041E050E028CFFFCFA0E0B0E0BD
:1002B200089501E010E00895E1E0F0E0E017F107B1
:1002C200089504E010E00895E2E0F0E0E017F1079D
:1002D2000895E4E0F0E0E017F1070895E5E0F0E0CA
:1002E200E017F1070895E2DF3BD0E217F307089524
:1002F200F195E195F04008950024112490E1AA0FB0
:10030200BB1F001C111C0E1A1F0A18F40E0E1F1E12
:1003120001C0A1609A9599F7FD01D001089512D00C
:10032200EBDF0EF4E5DF0895E894B7FF04C0A09573
:10033200B09511966894F7FDDBDFDEDFFD010EF468
:10034200D7DF0895E894F7FF02C0D2DF6894B7FFC1
:1003520006C0A095B095119600F8039400FA08958E
:10036200119602D0FE2F1197E199FECFFF93FFB7AE
:10037200F894AEBBBFBBE09AEDB3FFBFFF91089507
:1003820007D01196EF93EF2F03D0EF9111970895B5
:10039200E19B02C0A895FCCF9FB7F894AEBBBFBB50
:1003A200E09A8DB3E81719F0EDBBE29AE19A9FBF8C
:1003B2000895AC0FBD1F05900D928A95E1F708953F
:00000001FF
